:100000000C944F000C9400000C9400000C94000021
:100010000C9400000C9400000C9400000C94000060
:100020000C9400000C9400000C9400000C94000050
:100030000C9400000C9400000C9400000C94000040
:100040000C9436020C9400000C948B000C9400006D
:100050000C94B4000C946F000C9400000C940000FD
:100060000C9400000C9400000C9400000C94000010
:100070000C9400000C9400000C9449010C940000B6
:100080000C9400000C9400000C9400001027E8036E
:1000900064000A0001000010000110000100F89443
:1000A000EE27ECBBF1E0F5BFE5BFE0936C00F8E1B3
:1000B000F1BDE1BD8DE0A2E0BB27ED938A95E9F7A4
:1000C00080E090E1A0E0B1E0ED930197E9F7EFEF78
:1000D000EDBFE0E1EEBFC0E0D5E00C944E02AA9384
:1000E000BA93EA93EFB7EA931A9310E0A12FB0E026
:1000F000A454B94FE5B1EC931F5F113008F010E044
:10010000E12FE05EE7B9369A1991E991EFBFE991E5
:10011000B991A99118950E944B031A930A931BB1A8
:100120000CB1E12FEC71F9F4E091C106F091C20637
:10013000E050FA4F0083A1ECB6E00E94520331F484
:10014000E0E0F0E0E093C106F093C206A5ECB6E073
:100150000E94520341F4E0E0F0E0E093C506F09322
:10016000C606689421F8BDC00E944B03E091CB06FF
:10017000F091CC063097D1F0ABECB6E00E94590379
:10018000E091C906F091CA06E050FB4FE081ECB95E
:10019000A9ECB6E00E945F03E038A0E0FA0731F472
:1001A000E0E0F0E0E093C906F093CA069CC0E0915D
:1001B000C506F091C606309711F40C944201F894EC
:1001C000A091C706B091C806A855B94FE091C306E3
:1001D000F091C406E050FA4FE081EC930E94650371
:1001E0003797E855F94FE081E43281F40E946503C6
:1001F0003697E855F94FE081E13441F40E946503F8
:100200003597E855F94FE081E73309F026C00E94A1
:100210006503E855F94FE081EA30F9F40E9465037F
:100220003497E855F94FE081E09396060E94650304
:100230003397E855F94FE081E09395060E946503F6
:100240003297E855F94FE081E0939406E0E0F0E062
:10025000E093C706F093C80604C0A7ECB6E00E947E
:100260005F03A3ECB6E00E94520331F4E0E0F0E05B
:10027000E093C306F093C406A5ECB6E00E945903D0
:10028000789495CF0895E881F981EC56F94FE08193
:10029000C7C00E944B031A930A9310919B000091D0
:1002A0009C00E12FEC71E9F4F601E058FA4F00836D
:1002B000F60131966F01E038A0E0FA0711F4CC2482
:1002C000DD24AFEBB6E00E945F03E038A0E0FA0760
:1002D00041F4E0E0F0E0E093BF06F093C0066894DC
:1002E00020F809911991E991EFBFF991E991B9913C
:1002F000A9911895A091CB06B091CC06A038E0E06A
:10030000BE07C1F3F894E091CB06F091CC0630978C
:1003100011F45D991BC0E091CD06F091CE06E0503E
:10032000FB4FA881A083ADECB6E00E945F03E038EC
:10033000A0E0FA0731F4E0E0F0E0E093CD06F093BE
:10034000CE06ABECB6E00E945F0302C0E881ECB9D8
:10035000789421960895E091BF06F091C0063097F9
:1003600011F40C94F001D201AC5EB94FE091BD06DE
:10037000F091BE06E058FA4FE081EC93F894A4E1C6
:10038000B6E0A40DB51DAC91AA3099F4AA24BB2403
:100390004A145B0458F0A4E1B6E0AA0DBB1DEC9131
:1003A000EA93A8DFF50131965F01F2CF442455248A
:1003B00003C0F20131962F01ADEBB6E00E945F035E
:1003C000E038A0E0FA0731F4E0E0F0E0E093BD06A9
:1003D000F093BE06AFEBB6E00E9459037894BBCF12
:1003E0000895E981E0938300E881F981E093820038
:1003F00017C0E981E0938700E881F981E0938600E6
:100400000FC0E981E0938500E881F981E0938400E1
:1004100007C0E981F070E9BDE881F981F070E8BDBD
:1004200022960895E1E0F0E0E815F905F1F4E4E240
:10043000EA9360DFEDE4EA935DDFE3E5EA935ADFF8
:10044000E7E4EA9357DFE1E3EA9354DFECE2EA936F
:1004500051DFE091BC06EA934DDFEDE0EA934ADF1D
:10046000EAE0EA9347DF882499240895EA93FA930F
:10047000EFB7EA93E1E0E2BFF30131963F01ECE12F
:10048000F0E0E615F70529F4E1E0F0E04F0166241D
:100490007724E991EFBFF991E9911895649708E104
:1004A00011E022E930E0E0E0EBBBEABBE8BBE0E4CE
:1004B000E7BBEFEFE5BBE4BBE0E0E2BBE0E6E1BBBE
:1004C000E0E0E3B9E8E3E2B9E0E0E0936200E09362
:1004D0006100E0936500E0936400E0BFE7E0E3BF04
:1004E000E1E0E2BFE0E0E1BFE0E2EFBDE2E1EEBD6E
:1004F000E0E0EDBDECBDE4E2E7BDE0E0E6BDE0E05C
:10050000F0E0FA93EA9385DFE0E0E5BDE4BDE3BD0A
:10051000E8EAE0938B00E2E1E0938A00E0E0E09318
:100520008900E0938800E4E2E0938100E0E0E0935A
:1005300080001A930A9355DF1A930A9362DF1A9385
:100540000A9357DFE0E0E0936A00EABFE9BFE1E029
:10055000E7BFE0E0E0937D00EBB9E8EDEAB9E6E063
:10056000E0939500E0E0E0939000E7E1E9B9E0E096
:10057000E0939B00E8EDE0939A00E6E0E0939D00B5
:10058000E0E0E0939800EFE5E0939900E0E8E8B957
:10059000E0E0E0BDE0E2E7B9EDECE6B97894DBDE5F
:1005A00041DF05DEE2E0F0E00E946A03EA83E1E079
:1005B000F0E00E946A03E983E0E0F0E00E946A0351
:1005C000E883EA81ED34D9F4A981A13229F4959820
:1005D000969A0E946E030FC0A981A53229F4959ABC
:1005E00096980E946E0307C0A981A93239F4959AA2
:1005F000969AEFE3F0E0FA93EA930BDF4AC0E43413
:1006000079F4A981A13311F4AC9A04C0A981A03373
:1006100009F4AC980E947503E4DE40E050E039C074
:10062000E73451F4A981A13311F4A89A04C0A98137
:10063000A03309F4A8982DC0E33459F5A981A1335A
:1006400031F40E947503DDDE40E050E022C0A98154
:10065000A23331F40E947503CCDE40E050E019C0B3
:10066000A981A33351F4A881A03311F4AD9804C03B
:10067000A881A13309F4AD9A0CC0A981A53349F42E
:10068000A881A03311F4AF9804C0A881A13309F464
:10069000AF9A85CFFFCFAA93BA93EA93FA93EFB7B5
:1006A000EA930895ED91FD913196FE93EE93749740
:1006B0000895ED91FD913197FE93EE930895ED919C
:1006C000FD913196FE93EE930895E091C706F09167
:1006D000C8060895FA93EA930C944301488155277C
:1006E000FA01D9010E948D03089548815527FA0126
:1006F000A5E0B0E00E948D03E00FF11FFA93EA93AA
:100700000895F195E195F0400895FA9FF02DEB9F43
:10071000F00DEA9FE02DF10D089504D0F6DF0EF400
:10072000F0DF0895E894F7FF02C0EBDF6894B7FFAD
:1007300006C0A095B095119600F8039400FA0895AC
:00000001FF
